{
  "contractName": "Simple",
  "abi": [
    {
      "constant": false,
      "inputs": [
        {
          "name": "user_address",
          "type": "address"
        },
        {
          "name": "candidate_number",
          "type": "uint256"
        }
      ],
      "name": "vote",
      "outputs": [],
      "payable": false,
      "stateMutability": "nonpayable",
      "type": "function"
    },
    {
      "constant": false,
      "inputs": [
        {
          "name": "candidate_address",
          "type": "address"
        },
        {
          "name": "name",
          "type": "string"
        }
      ],
      "name": "addcandidate",
      "outputs": [],
      "payable": false,
      "stateMutability": "nonpayable",
      "type": "function"
    },
    {
      "constant": false,
      "inputs": [
        {
          "name": "user_address",
          "type": "address"
        }
      ],
      "name": "addvoter",
      "outputs": [],
      "payable": false,
      "stateMutability": "nonpayable",
      "type": "function"
    },
    {
      "constant": true,
      "inputs": [
        {
          "name": "user_address",
          "type": "address"
        }
      ],
      "name": "getcandidatename",
      "outputs": [
        {
          "name": "",
          "type": "string"
        }
      ],
      "payable": false,
      "stateMutability": "view",
      "type": "function"
    },
    {
      "constant": true,
      "inputs": [
        {
          "name": "name",
          "type": "string"
        }
      ],
      "name": "getcandidateID",
      "outputs": [
        {
          "name": "",
          "type": "uint256"
        }
      ],
      "payable": false,
      "stateMutability": "view",
      "type": "function"
    },
    {
      "constant": true,
      "inputs": [
        {
          "name": "user_address",
          "type": "address"
        }
      ],
      "name": "get_result_vote",
      "outputs": [
        {
          "name": "",
          "type": "uint256"
        }
      ],
      "payable": false,
      "stateMutability": "view",
      "type": "function"
    },
    {
      "constant": true,
      "inputs": [
        {
          "name": "user_address",
          "type": "address"
        }
      ],
      "name": "certification",
      "outputs": [
        {
          "name": "",
          "type": "bool"
        }
      ],
      "payable": false,
      "stateMutability": "view",
      "type": "function"
    },
    {
      "constant": true,
      "inputs": [],
      "name": "getcandidate",
      "outputs": [
        {
          "name": "",
          "type": "address"
        }
      ],
      "payable": false,
      "stateMutability": "view",
      "type": "function"
    },
    {
      "constant": true,
      "inputs": [],
      "name": "getNumOfvoted",
      "outputs": [
        {
          "name": "",
          "type": "uint256"
        }
      ],
      "payable": false,
      "stateMutability": "view",
      "type": "function"
    },
    {
      "constant": true,
      "inputs": [],
      "name": "getNumOfvoter",
      "outputs": [
        {
          "name": "",
          "type": "uint256"
        }
      ],
      "payable": false,
      "stateMutability": "view",
      "type": "function"
    },
    {
      "constant": true,
      "inputs": [],
      "name": "getNumOfcandidate",
      "outputs": [
        {
          "name": "",
          "type": "uint256"
        }
      ],
      "payable": false,
      "stateMutability": "view",
      "type": "function"
    }
  ],
  "bytecode": "0x608060405234801561001057600080fd5b50610e5d806100206000396000f3006080604052600436106100af576000357c0100000000000000000000000000000000000000000000000000000000900463ffffffff1680631aa47b7b146100b45780632b9f2c3f146100df5780634dcd5e0b146101225780635f74bbde146101de57806371cc34d81461022b57806378c5c73a1461025657806381f149f91461028157806397292752146102d8578063a729a7f514610355578063c2e1861d146103ac578063fc41d70114610435575b600080fd5b3480156100c057600080fd5b506100c9610490565b6040518082815260200191505060405180910390f35b3480156100eb57600080fd5b50610120600480360381019080803573ffffffffffffffffffffffffffffffffffffffff16906020019092919050505061049a565b005b34801561012e57600080fd5b50610163600480360381019080803573ffffffffffffffffffffffffffffffffffffffff1690602001909291905050506105a1565b6040518080602001828103825283818151815260200191508051906020019080838360005b838110156101a3578082015181840152602081019050610188565b50505050905090810190601f1680156101d05780820380516001836020036101000a031916815260200191505b509250505060405180910390f35b3480156101ea57600080fd5b50610229600480360381019080803573ffffffffffffffffffffffffffffffffffffffff16906020019092919080359060200190929190505050610716565b005b34801561023757600080fd5b50610240610906565b6040518082815260200191505060405180910390f35b34801561026257600080fd5b5061026b610910565b6040518082815260200191505060405180910390f35b34801561028d57600080fd5b506102c2600480360381019080803573ffffffffffffffffffffffffffffffffffffffff16906020019092919050505061091a565b6040518082815260200191505060405180910390f35b3480156102e457600080fd5b5061033f600480360381019080803590602001908201803590602001908080601f01602080910402602001604051908101604052809392919081815260200183838082843782019150505050505091929192905050506109c8565b6040518082815260200191505060405180910390f35b34801561036157600080fd5b5061036a610bbd565b604051808273ffffffffffffffffffffffffffffffffffffffff1673ffffffffffffffffffffffffffffffffffffffff16815260200191505060405180910390f35b3480156103b857600080fd5b50610433600480360381019080803573ffffffffffffffffffffffffffffffffffffffff169060200190929190803590602001908201803590602001908080601f0160208091040260200160405190810160405280939291908181526020018383808284378201915050505050509192919290505050610bfb565b005b34801561044157600080fd5b50610476600480360381019080803573ffffffffffffffffffffffffffffffffffffffff169060200190929190505050610ce1565b604051808215151515815260200191505060405180910390f35b6000600254905090565b60006003549050600360008154809291906001019190505590506060604051908101604052808373ffffffffffffffffffffffffffffffffffffffff1681526020016000815260200160001515815250600660008473ffffffffffffffffffffffffffffffffffffffff1673ffffffffffffffffffffffffffffffffffffffff16815260200190815260200160002060008201518160000160006101000a81548173ffffffffffffffffffffffffffffffffffffffff021916908373ffffffffffffffffffffffffffffffffffffffff1602179055506020820151816001015560408201518160020160006101000a81548160ff0219169083151502179055509050505050565b60606000600660008473ffffffffffffffffffffffffffffffffffffffff1673ffffffffffffffffffffffffffffffffffffffff16815260200190815260200160002060010154905060011515600660008573ffffffffffffffffffffffffffffffffffffffff1673ffffffffffffffffffffffffffffffffffffffff16815260200190815260200160002060020160009054906101000a900460ff16151514156106fc57600560008281526020019081526020016000206002018054600181600116156101000203166002900480601f0160208091040260200160405190810160405280929190818152602001828054600181600116156101000203166002900480156106f05780601f106106c5576101008083540402835291602001916106f0565b820191906000526020600020905b8154815290600101906020018083116106d357829003601f168201915b50505050509150610710565b602060405190810160405280600081525091505b50919050565b60016005600083815260200190815260200160002060030154016005600083815260200190815260200160002060030181905550816005600083815260200190815260200160002060040160008473ffffffffffffffffffffffffffffffffffffffff1673ffffffffffffffffffffffffffffffffffffffff16815260200190815260200160002060000160006101000a81548173ffffffffffffffffffffffffffffffffffffffff021916908373ffffffffffffffffffffffffffffffffffffffff16021790555060016005600083815260200190815260200160002060040160008473ffffffffffffffffffffffffffffffffffffffff1673ffffffffffffffffffffffffffffffffffffffff16815260200190815260200160002060020160006101000a81548160ff0219169083151502179055506001600660008473ffffffffffffffffffffffffffffffffffffffff1673ffffffffffffffffffffffffffffffffffffffff16815260200190815260200160002060020160006101000a81548160ff02191690831515021790555080600660008473ffffffffffffffffffffffffffffffffffffffff1673ffffffffffffffffffffffffffffffffffffffff168152602001908152602001600020600101819055506004600081548092919060010191905055505050565b6000600354905090565b6000600454905090565b600060011515600660008473ffffffffffffffffffffffffffffffffffffffff1673ffffffffffffffffffffffffffffffffffffffff16815260200190815260200160002060020160009054906101000a900460ff16151514156109c257600660008373ffffffffffffffffffffffffffffffffffffffff1673ffffffffffffffffffffffffffffffffffffffff1681526020019081526020016000206001015490506109c3565b5b919050565b600080600090505b600254811015610bb657826040516020018082805190602001908083835b602083101515610a1357805182526020820191506020810190506020830392506109ee565b6001836020036101000a0380198251168184511680821785525050505050509050019150506040516020818303038152906040526040518082805190602001908083835b602083101515610a7c5780518252602082019150602081019050602083039250610a57565b6001836020036101000a038019825116818451168082178552505050505050905001915050604051809103902060001916600560008381526020019081526020016000206002016040516020018082805460018160011615610100020316600290048015610b215780601f10610aff576101008083540402835291820191610b21565b820191906000526020600020905b815481529060010190602001808311610b0d575b50509150506040516020818303038152906040526040518082805190602001908083835b602083101515610b6a5780518252602082019150602081019050602083039250610b45565b6001836020036101000a0380198251168184511680821785525050505050509050019150506040518091039020600019161415610ba957809150610bb7565b80806001019150506109d0565b5b50919050565b60006005600080815260200190815260200160002060000160009054906101000a900473ffffffffffffffffffffffffffffffffffffffff16905090565b60006002549050600260008154809291906001019190505590506080604051908101604052808473ffffffffffffffffffffffffffffffffffffffff16815260200182815260200183815260200160008152506005600083815260200190815260200160002060008201518160000160006101000a81548173ffffffffffffffffffffffffffffffffffffffff021916908373ffffffffffffffffffffffffffffffffffffffff160217905550602082015181600101556040820151816002019080519060200190610cce929190610d8c565b5060608201518160030155905050505050565b60008173ffffffffffffffffffffffffffffffffffffffff16600660008473ffffffffffffffffffffffffffffffffffffffff1673ffffffffffffffffffffffffffffffffffffffff16815260200190815260200160002060000160009054906101000a900473ffffffffffffffffffffffffffffffffffffffff1673ffffffffffffffffffffffffffffffffffffffff161415610d825760019050610d87565b600090505b919050565b828054600181600116156101000203166002900490600052602060002090601f016020900481019282601f10610dcd57805160ff1916838001178555610dfb565b82800160010185558215610dfb579182015b82811115610dfa578251825591602001919060010190610ddf565b5b509050610e089190610e0c565b5090565b610e2e91905b80821115610e2a576000816000905550600101610e12565b5090565b905600a165627a7a72305820db4a3189655113a1d416fd003159012d04907db81c9a67a159b222663f3b2e970029",
  "source": "pragma solidity ^0.4.11;\ncontract Simple{\n    address User;\n    uint256 data;\n    uint256 numCandidates;\n    uint256 numvoter;\n    uint256 numvoted;\n    \n    struct Candidate {\n        address uid;\n        uint256 candidate_number;\n        string name;\n        uint256 num;\n        mapping (address => voter) voters;\n    }\n    \n    struct voter {\n        address user_address;\n        uint256 candidate_number;\n        bool voted;\n    }\n    \n    mapping (uint256 => Candidate) candidates;\n    mapping (address => voter) votes;\n\n    \n    function vote (address user_address, uint256 candidate_number) public {\n        candidates[candidate_number].num = candidates[candidate_number].num + 1;\n        candidates[candidate_number].voters[user_address].user_address = user_address;\n        candidates[candidate_number].voters[user_address].voted = true;\n        votes[user_address].voted = true;\n        votes[user_address].candidate_number = candidate_number;\n        numvoted++;\n    }\n    \n    function addcandidate(address candidate_address, string name) public {\n        uint256 candidateID = numCandidates;\n        candidateID = numCandidates++;\n\n        candidates[candidateID] = Candidate(candidate_address, candidateID, name, 0);\n    }\n\n    function addvoter(address user_address) public {\n        uint256 voterID = numvoter;\n        voterID = numvoter++;\n\n        votes[user_address] = voter(user_address, 0, false);\n    }\n\n    function getcandidatename(address user_address) constant public returns(string){\n        uint256 candidateID = votes[user_address].candidate_number;\n        if ( votes[user_address].voted == true ){\n            return candidates[candidateID].name;\n        }else{\n            return \"\";\n        }\n    }\n    \n    function getcandidateID(string name) constant public returns(uint256){\n        for (uint i = 0; i < numCandidates; i++) {\n            if(keccak256(abi.encodePacked(candidates[i].name)) == keccak256(abi.encodePacked(name))){\n                return i;\n            }\n        }\n    }\n    \n    function get_result_vote(address user_address) constant public returns(uint256){\n        if (votes[user_address].voted == true){\n            return votes[user_address].candidate_number;\n        }\n    }\n        \n    function certification(address user_address) constant public returns(bool){\n        if (votes[user_address].user_address == user_address){\n            return true;\n        }\n        return false;\n    }\n    \n    function getcandidate() constant public returns(address){\n        return candidates[0].uid;\n    }\n    \n    function getNumOfvoted() constant public returns(uint256){\n        return numvoted;\n    }\n\n    function getNumOfvoter() constant public returns(uint256) {\n        return numvoter;\n    }\n    \n    function getNumOfcandidate() constant public returns(uint256) {\n        return numCandidates;\n    }\n}\n",
  "sourcePath": "/home/truffle/contracts/Simple.sol",
  "compiler": {
    "name": "solc",
    "version": "0.4.24+commit.e67f0147.Emscripten.clang"
  },
  "schemaVersion": "2.0.1",
  "updatedAt": "2018-09-18T12:21:48.997Z"
}