{
  "contractName": "Simple",
  "abi": [
    {
      "constant": true,
      "inputs": [],
      "name": "get",
      "outputs": [
        {
          "name": "",
          "type": "uint256"
        }
      ],
      "payable": false,
      "stateMutability": "view",
      "type": "function"
    },
    {
      "constant": false,
      "inputs": [
        {
          "name": "_data",
          "type": "uint256"
        }
      ],
      "name": "set",
      "outputs": [],
      "payable": false,
      "stateMutability": "nonpayable",
      "type": "function"
    },
    {
      "constant": false,
      "inputs": [
        {
          "name": "user_address",
          "type": "address"
        }
      ],
      "name": "addCandidate",
      "outputs": [],
      "payable": false,
      "stateMutability": "nonpayable",
      "type": "function"
    },
    {
      "constant": true,
      "inputs": [
        {
          "name": "user_address",
          "type": "address"
        }
      ],
      "name": "certification",
      "outputs": [
        {
          "name": "",
          "type": "bool"
        }
      ],
      "payable": false,
      "stateMutability": "view",
      "type": "function"
    },
    {
      "constant": true,
      "inputs": [],
      "name": "getNumOfCandidates",
      "outputs": [
        {
          "name": "",
          "type": "uint256"
        }
      ],
      "payable": false,
      "stateMutability": "view",
      "type": "function"
    }
  ],
  "bytecode": "0x608060405234801561001057600080fd5b50610380806100206000396000f30060806040526004361061006d576000357c0100000000000000000000000000000000000000000000000000000000900463ffffffff1680633acd75f81461007257806360fe47b1146100b55780636d4ce63c146100e2578063e8685ba11461010d578063fc41d70114610138575b600080fd5b34801561007e57600080fd5b506100b3600480360381019080803573ffffffffffffffffffffffffffffffffffffffff169060200190929190505050610193565b005b3480156100c157600080fd5b506100e060048036038101908080359060200190929190505050610288565b005b3480156100ee57600080fd5b506100f7610292565b6040518082815260200191505060405180910390f35b34801561011957600080fd5b5061012261029f565b6040518082815260200191505060405180910390f35b34801561014457600080fd5b50610179600480360381019080803573ffffffffffffffffffffffffffffffffffffffff1690602001909291905050506102a9565b604051808215151515815260200191505060405180910390f35b600060015490506001600081548092919060010191905055905060408051908101604052808373ffffffffffffffffffffffffffffffffffffffff16815260200160001515815250600260008473ffffffffffffffffffffffffffffffffffffffff1673ffffffffffffffffffffffffffffffffffffffff16815260200190815260200160002060008201518160000160006101000a81548173ffffffffffffffffffffffffffffffffffffffff021916908373ffffffffffffffffffffffffffffffffffffffff16021790555060208201518160000160146101000a81548160ff0219169083151502179055509050505050565b8060008190555050565b6000600160005401905090565b6000600154905090565b60008173ffffffffffffffffffffffffffffffffffffffff16600260008473ffffffffffffffffffffffffffffffffffffffff1673ffffffffffffffffffffffffffffffffffffffff16815260200190815260200160002060000160009054906101000a900473ffffffffffffffffffffffffffffffffffffffff1673ffffffffffffffffffffffffffffffffffffffff16141561034a576001905061034f565b600090505b9190505600a165627a7a72305820fdfc39c14fa8c5ae39ab8b4a05912b1a646b7a67efa1ccd393200bc279a944080029",
  "source": "pragma solidity ^0.4.11;\ncontract Simple{\n    \n    uint256 data;\n    uint256 numCandidates;\n    \n    struct Candidate {\n        \n        address user_address;\n        bool doesExist; \n    }\n    \n    mapping (address => Candidate) candidates;\n\n    function get() constant public returns(uint256) {\n        return data+1;\n    }\n    function set (uint256 _data) public{\n        data= _data;\n    }\n    \n    function addCandidate(address user_address) public {\n        uint256 candidateID = numCandidates;\n        candidateID = numCandidates++;\n        \n        candidates[user_address] = Candidate(user_address, false);\n    }\n\n    function certification(address user_address) constant public returns(bool){\n        if (candidates[user_address].user_address == user_address){\n            return true;\n        }\n        return false;\n    }    \n\n    function getNumOfCandidates() constant public returns(uint256) {\n        return numCandidates;\n    }\n}\n",
  "sourcePath": "/home/truffle/contracts/Simple.sol",
  "compiler": {
    "name": "solc",
    "version": "0.4.24+commit.e67f0147.Emscripten.clang"
  },
  "schemaVersion": "2.0.1",
  "updatedAt": "2018-09-08T14:11:00.518Z"
}