{
  "contractName": "Vote",
  "abi": [
    {
      "constant": false,
      "inputs": [
        {
          "name": "user_address",
          "type": "address"
        },
        {
          "name": "candidate_address",
          "type": "address"
        }
      ],
      "name": "vote",
      "outputs": [],
      "payable": false,
      "stateMutability": "nonpayable",
      "type": "function"
    },
    {
      "constant": false,
      "inputs": [
        {
          "name": "candidate_address",
          "type": "address"
        }
      ],
      "name": "addcandidate",
      "outputs": [],
      "payable": false,
      "stateMutability": "nonpayable",
      "type": "function"
    },
    {
      "constant": false,
      "inputs": [
        {
          "name": "user_address",
          "type": "address"
        }
      ],
      "name": "addvoter",
      "outputs": [],
      "payable": false,
      "stateMutability": "nonpayable",
      "type": "function"
    },
    {
      "constant": true,
      "inputs": [
        {
          "name": "user_address",
          "type": "address"
        }
      ],
      "name": "get_result_vote",
      "outputs": [
        {
          "name": "",
          "type": "address"
        }
      ],
      "payable": false,
      "stateMutability": "view",
      "type": "function"
    },
    {
      "constant": true,
      "inputs": [
        {
          "name": "user_address",
          "type": "address"
        }
      ],
      "name": "certification",
      "outputs": [
        {
          "name": "",
          "type": "bool"
        }
      ],
      "payable": false,
      "stateMutability": "view",
      "type": "function"
    },
    {
      "constant": true,
      "inputs": [],
      "name": "getNumOfvoted",
      "outputs": [
        {
          "name": "",
          "type": "uint256"
        }
      ],
      "payable": false,
      "stateMutability": "view",
      "type": "function"
    },
    {
      "constant": true,
      "inputs": [],
      "name": "getNumOfvoter",
      "outputs": [
        {
          "name": "",
          "type": "uint256"
        }
      ],
      "payable": false,
      "stateMutability": "view",
      "type": "function"
    },
    {
      "constant": true,
      "inputs": [],
      "name": "getNumOfcandidate",
      "outputs": [
        {
          "name": "",
          "type": "uint256"
        }
      ],
      "payable": false,
      "stateMutability": "view",
      "type": "function"
    }
  ],
  "bytecode": "0x608060405234801561001057600080fd5b506109ae806100206000396000f30060806040526004361061008e576000357c0100000000000000000000000000000000000000000000000000000000900463ffffffff16806317943b5a146100935780631aa47b7b146100d65780631afa74e5146101015780632b9f2c3f1461016457806371cc34d8146101a757806378c5c73a146101d257806381f149f9146101fd578063fc41d70114610280575b600080fd5b34801561009f57600080fd5b506100d4600480360381019080803573ffffffffffffffffffffffffffffffffffffffff1690602001909291905050506102db565b005b3480156100e257600080fd5b506100eb6103b8565b6040518082815260200191505060405180910390f35b34801561010d57600080fd5b50610162600480360381019080803573ffffffffffffffffffffffffffffffffffffffff169060200190929190803573ffffffffffffffffffffffffffffffffffffffff1690602001909291905050506103c2565b005b34801561017057600080fd5b506101a5600480360381019080803573ffffffffffffffffffffffffffffffffffffffff16906020019092919050505061069c565b005b3480156101b357600080fd5b506101bc6107f5565b6040518082815260200191505060405180910390f35b3480156101de57600080fd5b506101e76107ff565b6040518082815260200191505060405180910390f35b34801561020957600080fd5b5061023e600480360381019080803573ffffffffffffffffffffffffffffffffffffffff169060200190929190505050610809565b604051808273ffffffffffffffffffffffffffffffffffffffff1673ffffffffffffffffffffffffffffffffffffffff16815260200191505060405180910390f35b34801561028c57600080fd5b506102c1600480360381019080803573ffffffffffffffffffffffffffffffffffffffff1690602001909291905050506108d7565b604051808215151515815260200191505060405180910390f35b600060025490506002600081548092919060010191905055905060408051908101604052808373ffffffffffffffffffffffffffffffffffffffff1681526020016000815250600560008473ffffffffffffffffffffffffffffffffffffffff1673ffffffffffffffffffffffffffffffffffffffff16815260200190815260200160002060008201518160000160006101000a81548173ffffffffffffffffffffffffffffffffffffffff021916908373ffffffffffffffffffffffffffffffffffffffff160217905550602082015181600101559050505050565b6000600254905090565b6001600560008373ffffffffffffffffffffffffffffffffffffffff1673ffffffffffffffffffffffffffffffffffffffff1681526020019081526020016000206001015401600560008373ffffffffffffffffffffffffffffffffffffffff1673ffffffffffffffffffffffffffffffffffffffff1681526020019081526020016000206001018190555081600560008373ffffffffffffffffffffffffffffffffffffffff1673ffffffffffffffffffffffffffffffffffffffff16815260200190815260200160002060020160008473ffffffffffffffffffffffffffffffffffffffff1673ffffffffffffffffffffffffffffffffffffffff16815260200190815260200160002060000160006101000a81548173ffffffffffffffffffffffffffffffffffffffff021916908373ffffffffffffffffffffffffffffffffffffffff1602179055506001600560008373ffffffffffffffffffffffffffffffffffffffff1673ffffffffffffffffffffffffffffffffffffffff16815260200190815260200160002060020160008473ffffffffffffffffffffffffffffffffffffffff1673ffffffffffffffffffffffffffffffffffffffff16815260200190815260200160002060010160146101000a81548160ff0219169083151502179055506001600660008473ffffffffffffffffffffffffffffffffffffffff1673ffffffffffffffffffffffffffffffffffffffff16815260200190815260200160002060010160146101000a81548160ff02191690831515021790555080600660008473ffffffffffffffffffffffffffffffffffffffff1673ffffffffffffffffffffffffffffffffffffffff16815260200190815260200160002060010160006101000a81548173ffffffffffffffffffffffffffffffffffffffff021916908373ffffffffffffffffffffffffffffffffffffffff1602179055506004600081548092919060010191905055505050565b60006003549050600360008154809291906001019190505590506060604051908101604052808373ffffffffffffffffffffffffffffffffffffffff1681526020018373ffffffffffffffffffffffffffffffffffffffff16815260200160001515815250600660008473ffffffffffffffffffffffffffffffffffffffff1673ffffffffffffffffffffffffffffffffffffffff16815260200190815260200160002060008201518160000160006101000a81548173ffffffffffffffffffffffffffffffffffffffff021916908373ffffffffffffffffffffffffffffffffffffffff16021790555060208201518160010160006101000a81548173ffffffffffffffffffffffffffffffffffffffff021916908373ffffffffffffffffffffffffffffffffffffffff16021790555060408201518160010160146101000a81548160ff0219169083151502179055509050505050565b6000600354905090565b6000600454905090565b600060011515600660008473ffffffffffffffffffffffffffffffffffffffff1673ffffffffffffffffffffffffffffffffffffffff16815260200190815260200160002060010160149054906101000a900460ff16151514156108d157600660008373ffffffffffffffffffffffffffffffffffffffff1673ffffffffffffffffffffffffffffffffffffffff16815260200190815260200160002060010160009054906101000a900473ffffffffffffffffffffffffffffffffffffffff1690506108d2565b5b919050565b60008173ffffffffffffffffffffffffffffffffffffffff16600660008473ffffffffffffffffffffffffffffffffffffffff1673ffffffffffffffffffffffffffffffffffffffff16815260200190815260200160002060000160009054906101000a900473ffffffffffffffffffffffffffffffffffffffff1673ffffffffffffffffffffffffffffffffffffffff161415610978576001905061097d565b600090505b9190505600a165627a7a723058202b464ae756eb18994a98634f97a631424de26282e3b1b1224f70c93223e2223e0029",
  "source": "pragma solidity ^0.4.11;\ncontract Vote{\n    address User;\n    uint256 data;\n    uint256 numCandidates;\n    uint256 numvoter;\n    uint256 numvoted;\n    \n    struct Candidate {\n        address uid;\n        uint256 num;\n        mapping (address => voter) voters;\n    }\n    \n    struct voter {\n        address user_address;\n        address candidate_address;\n        bool voted;\n    }\n    \n    mapping (address => Candidate) candidates;\n    mapping (address => voter) votes;\n\n    \n    function vote (address user_address, address candidate_address) public {\n        candidates[candidate_address].num = candidates[candidate_address].num + 1;\n        candidates[candidate_address].voters[user_address].user_address = user_address;\n        candidates[candidate_address].voters[user_address].voted = true;\n        votes[user_address].voted = true;\n        votes[user_address].candidate_address = candidate_address;\n        numvoted++;\n    }\n    \n    function addcandidate(address candidate_address) public {\n        uint256 candidateID = numCandidates;\n        candidateID = numCandidates++;\n\n        candidates[candidate_address] = Candidate(candidate_address, 0);\n    }\n\n    function addvoter(address user_address) public {\n        uint256 voterID = numvoter;\n        voterID = numvoter++;\n\n        votes[user_address] = voter(user_address,user_address, false);\n    }\n    \n    function get_result_vote(address user_address) constant public returns(address){\n        if (votes[user_address].voted == true){\n            return votes[user_address].candidate_address;\n        }\n    }\n        \n    function certification(address user_address) constant public returns(bool){\n        if (votes[user_address].user_address == user_address){\n            return true;\n        }\n        return false;\n    }\n    \n    function getNumOfvoted() constant public returns(uint256){\n        return numvoted;\n    }\n\n    function getNumOfvoter() constant public returns(uint256) {\n        return numvoter;\n    }\n    \n    function getNumOfcandidate() constant public returns(uint256) {\n        return numCandidates;\n    }\n}\n",
  "sourcePath": "/home/truffle/contracts/Vote.sol",
  "compiler": {
    "name": "solc",
    "version": "0.4.24+commit.e67f0147.Emscripten.clang"
  },
  "schemaVersion": "2.0.1",
  "updatedAt": "2018-09-18T12:21:53.689Z"
}